{
  "contractName": "ByOrigin",
  "abi": [
    {
      "inputs": [],
      "stateMutability": "nonpayable",
      "type": "constructor"
    },
    {
      "anonymous": false,
      "inputs": [
        {
          "indexed": true,
          "internalType": "address",
          "name": "previousOwner",
          "type": "address"
        },
        {
          "indexed": true,
          "internalType": "address",
          "name": "newOwner",
          "type": "address"
        }
      ],
      "name": "OwnershipTransferred",
      "type": "event"
    },
    {
      "inputs": [],
      "name": "approvalCounts",
      "outputs": [
        {
          "internalType": "uint256",
          "name": "",
          "type": "uint256"
        }
      ],
      "stateMutability": "view",
      "type": "function",
      "constant": true
    },
    {
      "inputs": [
        {
          "internalType": "address",
          "name": "",
          "type": "address"
        }
      ],
      "name": "issuerAddress",
      "outputs": [
        {
          "internalType": "bool",
          "name": "",
          "type": "bool"
        }
      ],
      "stateMutability": "view",
      "type": "function",
      "constant": true
    },
    {
      "inputs": [
        {
          "internalType": "uint256",
          "name": "",
          "type": "uint256"
        }
      ],
      "name": "issuerRequest",
      "outputs": [
        {
          "internalType": "address",
          "name": "issuerAddress",
          "type": "address"
        },
        {
          "internalType": "string",
          "name": "issuerCID",
          "type": "string"
        },
        {
          "internalType": "bool",
          "name": "approval",
          "type": "bool"
        }
      ],
      "stateMutability": "view",
      "type": "function",
      "constant": true
    },
    {
      "inputs": [],
      "name": "owner",
      "outputs": [
        {
          "internalType": "address",
          "name": "",
          "type": "address"
        }
      ],
      "stateMutability": "view",
      "type": "function",
      "constant": true
    },
    {
      "inputs": [],
      "name": "renounceOwnership",
      "outputs": [],
      "stateMutability": "nonpayable",
      "type": "function"
    },
    {
      "inputs": [
        {
          "internalType": "address",
          "name": "newOwner",
          "type": "address"
        }
      ],
      "name": "transferOwnership",
      "outputs": [],
      "stateMutability": "nonpayable",
      "type": "function"
    },
    {
      "inputs": [
        {
          "internalType": "string",
          "name": "_issuerCID",
          "type": "string"
        }
      ],
      "name": "applyForRequest",
      "outputs": [],
      "stateMutability": "nonpayable",
      "type": "function"
    },
    {
      "inputs": [
        {
          "internalType": "uint256",
          "name": "_index",
          "type": "uint256"
        }
      ],
      "name": "approveRequest",
      "outputs": [],
      "stateMutability": "nonpayable",
      "type": "function"
    },
    {
      "inputs": [],
      "name": "issuerRequestCount",
      "outputs": [
        {
          "internalType": "uint256",
          "name": "result",
          "type": "uint256"
        }
      ],
      "stateMutability": "view",
      "type": "function",
      "constant": true
    },
    {
      "inputs": [
        {
          "internalType": "address",
          "name": "_issuerAddress",
          "type": "address"
        }
      ],
      "name": "getOwnerContract",
      "outputs": [
        {
          "components": [
            {
              "internalType": "address",
              "name": "contractaddress",
              "type": "address"
            },
            {
              "internalType": "string",
              "name": "contractName",
              "type": "string"
            },
            {
              "internalType": "uint256",
              "name": "requestIndex",
              "type": "uint256"
            },
            {
              "internalType": "string",
              "name": "contractType",
              "type": "string"
            }
          ],
          "internalType": "struct ByOrigin.IssuerContract[]",
          "name": "",
          "type": "tuple[]"
        }
      ],
      "stateMutability": "view",
      "type": "function",
      "constant": true
    },
    {
      "inputs": [
        {
          "internalType": "uint256",
          "name": "_index",
          "type": "uint256"
        },
        {
          "internalType": "string",
          "name": "_contractType",
          "type": "string"
        },
        {
          "internalType": "string",
          "name": "_contractName",
          "type": "string"
        }
      ],
      "name": "createNewContract",
      "outputs": [],
      "stateMutability": "nonpayable",
      "type": "function"
    }
  ],
  "bytecode": "0x608060405234801561001057600080fd5b5061002d61002261007360201b60201c565b61007b60201b60201c565b33600160006101000a81548173ffffffffffffffffffffffffffffffffffffffff021916908373ffffffffffffffffffffffffffffffffffffffff16021790555061013f565b600033905090565b60008060009054906101000a900473ffffffffffffffffffffffffffffffffffffffff169050816000806101000a81548173ffffffffffffffffffffffffffffffffffffffff021916908373ffffffffffffffffffffffffffffffffffffffff1602179055508173ffffffffffffffffffffffffffffffffffffffff168173ffffffffffffffffffffffffffffffffffffffff167f8be0079c531659141344cd1fd0a4f28419497f9722a3daafe3b4186f6b6457e060405160405180910390a35050565b615ea6806200014f6000396000f3fe60806040523480156200001157600080fd5b5060043610620000b85760003560e01c8063ca4f20ce116200007b578063ca4f20ce1462000165578063d480e74c146200019b578063d7d1bbdb14620001d1578063d9d989a014620001f1578063e929dbb01462000213578063f2fde38b146200023357620000b8565b806302fb063214620000bd5780635e82c51414620000df578063715018a614620001175780638da5cb5b1462000123578063b765f1dd1462000145575b600080fd5b620000c762000253565b604051620000d6919062000e3e565b60405180910390f35b620000fd6004803603810190620000f7919062000ea0565b62000259565b6040516200010e9392919062000fd8565b60405180910390f35b6200012162000351565b005b6200012d620003e2565b6040516200013c91906200101c565b60405180910390f35b6200016360048036038101906200015d91906200118a565b6200040b565b005b6200018360048036038101906200017d91906200120c565b620005dd565b604051620001929190620013f4565b60405180910390f35b620001b96004803603810190620001b391906200120c565b62000814565b604051620001c8919062001418565b60405180910390f35b620001ef6004803603810190620001e9919062000ea0565b62000834565b005b620001fb6200090e565b6040516200020a919062000e3e565b60405180910390f35b6200023160048036038101906200022b919062001435565b62000920565b005b6200025160048036038101906200024b91906200120c565b62000b95565b005b60035481565b600281815481106200026a57600080fd5b90600052602060002090600302016000915090508060000160009054906101000a900473ffffffffffffffffffffffffffffffffffffffff1690806001018054620002b590620014fe565b80601f0160208091040260200160405190810160405280929190818152602001828054620002e390620014fe565b8015620003345780601f10620003085761010080835404028352916020019162000334565b820191906000526020600020905b8154815290600101906020018083116200031657829003601f168201915b5050505050908060020160009054906101000a900460ff16905083565b6200035b62000c99565b73ffffffffffffffffffffffffffffffffffffffff166200037b620003e2565b73ffffffffffffffffffffffffffffffffffffffff1614620003d4576040517f08c379a0000000000000000000000000000000000000000000000000000000008152600401620003cb9062001584565b60405180910390fd5b620003e0600062000ca1565b565b60008060009054906101000a900473ffffffffffffffffffffffffffffffffffffffff16905090565b600560003373ffffffffffffffffffffffffffffffffffffffff1673ffffffffffffffffffffffffffffffffffffffff16815260200190815260200160002060009054906101000a900460ff16156200049b576040517f08c379a00000000000000000000000000000000000000000000000000000000081526004016200049290620015f6565b60405180910390fd5b600260405180606001604052803373ffffffffffffffffffffffffffffffffffffffff16815260200183815260200160001515815250908060018154018082558091505060019003906000526020600020906003020160009091909190915060008201518160000160006101000a81548173ffffffffffffffffffffffffffffffffffffffff021916908373ffffffffffffffffffffffffffffffffffffffff16021790555060208201518160010190805190602001906200055f92919062000d65565b5060408201518160020160006101000a81548160ff02191690831515021790555050506001600560003373ffffffffffffffffffffffffffffffffffffffff1673ffffffffffffffffffffffffffffffffffffffff16815260200190815260200160002060006101000a81548160ff02191690831515021790555050565b6060600460008373ffffffffffffffffffffffffffffffffffffffff1673ffffffffffffffffffffffffffffffffffffffff168152602001908152602001600020600001805480602002602001604051908101604052809291908181526020016000905b828210156200080957838290600052602060002090600402016040518060800160405290816000820160009054906101000a900473ffffffffffffffffffffffffffffffffffffffff1673ffffffffffffffffffffffffffffffffffffffff1673ffffffffffffffffffffffffffffffffffffffff168152602001600182018054620006cd90620014fe565b80601f0160208091040260200160405190810160405280929190818152602001828054620006fb90620014fe565b80156200074c5780601f1062000720576101008083540402835291602001916200074c565b820191906000526020600020905b8154815290600101906020018083116200072e57829003601f168201915b50505050508152602001600282015481526020016003820180546200077190620014fe565b80601f01602080910402602001604051908101604052809291908181526020018280546200079f90620014fe565b8015620007f05780601f10620007c457610100808354040283529160200191620007f0565b820191906000526020600020905b815481529060010190602001808311620007d257829003601f168201915b5050505050815250508152602001906001019062000641565b505050509050919050565b60056020528060005260406000206000915054906101000a900460ff1681565b60001515600282815481106200084f576200084e62001618565b5b906000526020600020906003020160020160009054906101000a900460ff16151514620008b3576040517f08c379a0000000000000000000000000000000000000000000000000000000008152600401620008aa9062001697565b60405180910390fd5b600160028281548110620008cc57620008cb62001618565b5b906000526020600020906003020160020160006101000a81548160ff0219169083151502179055506001600354620009059190620016e8565b60038190555050565b60008060028054905090508091505090565b3373ffffffffffffffffffffffffffffffffffffffff16600284815481106200094e576200094d62001618565b5b906000526020600020906003020160000160009054906101000a900473ffffffffffffffffffffffffffffffffffffffff1673ffffffffffffffffffffffffffffffffffffffff16148015620009dd57506001151560028481548110620009ba57620009b962001618565b5b906000526020600020906003020160020160009054906101000a900460ff161515145b62000a1f576040517f08c379a000000000000000000000000000000000000000000000000000000000815260040162000a169062001795565b60405180910390fd5b60003360405162000a309062000df6565b62000a3c91906200101c565b604051809103906000f08015801562000a59573d6000803e3d6000fd5b509050600460003373ffffffffffffffffffffffffffffffffffffffff1673ffffffffffffffffffffffffffffffffffffffff16815260200190815260200160002060000160405180608001604052808373ffffffffffffffffffffffffffffffffffffffff16815260200184815260200186815260200185815250908060018154018082558091505060019003906000526020600020906004020160009091909190915060008201518160000160006101000a81548173ffffffffffffffffffffffffffffffffffffffff021916908373ffffffffffffffffffffffffffffffffffffffff160217905550602082015181600101908051906020019062000b6392919062000d65565b5060408201518160020155606082015181600301908051906020019062000b8c92919062000d65565b50505050505050565b62000b9f62000c99565b73ffffffffffffffffffffffffffffffffffffffff1662000bbf620003e2565b73ffffffffffffffffffffffffffffffffffffffff161462000c18576040517f08c379a000000000000000000000000000000000000000000000000000000000815260040162000c0f9062001584565b60405180910390fd5b600073ffffffffffffffffffffffffffffffffffffffff168173ffffffffffffffffffffffffffffffffffffffff16141562000c8b576040517f08c379a000000000000000000000000000000000000000000000000000000000815260040162000c82906200182d565b60405180910390fd5b62000c968162000ca1565b50565b600033905090565b60008060009054906101000a900473ffffffffffffffffffffffffffffffffffffffff169050816000806101000a81548173ffffffffffffffffffffffffffffffffffffffff021916908373ffffffffffffffffffffffffffffffffffffffff1602179055508173ffffffffffffffffffffffffffffffffffffffff168173ffffffffffffffffffffffffffffffffffffffff167f8be0079c531659141344cd1fd0a4f28419497f9722a3daafe3b4186f6b6457e060405160405180910390a35050565b82805462000d7390620014fe565b90600052602060002090601f01602090048101928262000d97576000855562000de3565b82601f1062000db257805160ff191683800117855562000de3565b8280016001018555821562000de3579182015b8281111562000de257825182559160200191906001019062000dc5565b5b50905062000df2919062000e04565b5090565b614621806200185083390190565b5b8082111562000e1f57600081600090555060010162000e05565b5090565b6000819050919050565b62000e388162000e23565b82525050565b600060208201905062000e55600083018462000e2d565b92915050565b6000604051905090565b600080fd5b600080fd5b62000e7a8162000e23565b811462000e8657600080fd5b50565b60008135905062000e9a8162000e6f565b92915050565b60006020828403121562000eb95762000eb862000e65565b5b600062000ec98482850162000e89565b91505092915050565b600073ffffffffffffffffffffffffffffffffffffffff82169050919050565b600062000eff8262000ed2565b9050919050565b62000f118162000ef2565b82525050565b600081519050919050565b600082825260208201905092915050565b60005b8381101562000f5357808201518184015260208101905062000f36565b8381111562000f63576000848401525b50505050565b6000601f19601f8301169050919050565b600062000f878262000f17565b62000f93818562000f22565b935062000fa581856020860162000f33565b62000fb08162000f69565b840191505092915050565b60008115159050919050565b62000fd28162000fbb565b82525050565b600060608201905062000fef600083018662000f06565b818103602083015262001003818562000f7a565b905062001014604083018462000fc7565b949350505050565b600060208201905062001033600083018462000f06565b92915050565b600080fd5b600080fd5b7f4e487b7100000000000000000000000000000000000000000000000000000000600052604160045260246000fd5b6200107d8262000f69565b810181811067ffffffffffffffff821117156200109f576200109e62001043565b5b80604052505050565b6000620010b462000e5b565b9050620010c2828262001072565b919050565b600067ffffffffffffffff821115620010e557620010e462001043565b5b620010f08262000f69565b9050602081019050919050565b82818337600083830152505050565b6000620011236200111d84620010c7565b620010a8565b9050828152602081018484840111156200114257620011416200103e565b5b6200114f848285620010fd565b509392505050565b600082601f8301126200116f576200116e62001039565b5b8135620011818482602086016200110c565b91505092915050565b600060208284031215620011a357620011a262000e65565b5b600082013567ffffffffffffffff811115620011c457620011c362000e6a565b5b620011d28482850162001157565b91505092915050565b620011e68162000ef2565b8114620011f257600080fd5b50565b6000813590506200120681620011db565b92915050565b60006020828403121562001225576200122462000e65565b5b60006200123584828501620011f5565b91505092915050565b600081519050919050565b600082825260208201905092915050565b6000819050602082019050919050565b620012758162000ef2565b82525050565b600082825260208201905092915050565b6000620012998262000f17565b620012a581856200127b565b9350620012b781856020860162000f33565b620012c28162000f69565b840191505092915050565b620012d88162000e23565b82525050565b6000608083016000830151620012f860008601826200126a565b50602083015184820360208601526200131282826200128c565b9150506040830151620013296040860182620012cd565b50606083015184820360608601526200134382826200128c565b9150508091505092915050565b60006200135e8383620012de565b905092915050565b6000602082019050919050565b600062001380826200123e565b6200138c818562001249565b935083602082028501620013a0856200125a565b8060005b85811015620013e25784840389528151620013c0858262001350565b9450620013cd8362001366565b925060208a01995050600181019050620013a4565b50829750879550505050505092915050565b6000602082019050818103600083015262001410818462001373565b905092915050565b60006020820190506200142f600083018462000fc7565b92915050565b60008060006060848603121562001451576200145062000e65565b5b6000620014618682870162000e89565b935050602084013567ffffffffffffffff81111562001485576200148462000e6a565b5b620014938682870162001157565b925050604084013567ffffffffffffffff811115620014b757620014b662000e6a565b5b620014c58682870162001157565b9150509250925092565b7f4e487b7100000000000000000000000000000000000000000000000000000000600052602260045260246000fd5b600060028204905060018216806200151757607f821691505b602082108114156200152e576200152d620014cf565b5b50919050565b7f4f776e61626c653a2063616c6c6572206973206e6f7420746865206f776e6572600082015250565b60006200156c60208362000f22565b9150620015798262001534565b602082019050919050565b600060208201905081810360008301526200159f816200155d565b9050919050565b7f416c6172656479207265676973746572206173204973737565722e0000000000600082015250565b6000620015de601b8362000f22565b9150620015eb82620015a6565b602082019050919050565b600060208201905081810360008301526200161181620015cf565b9050919050565b7f4e487b7100000000000000000000000000000000000000000000000000000000600052603260045260246000fd5b7f497373756572207265717565737420616c726561647920617070726f7665642e600082015250565b60006200167f60208362000f22565b91506200168c8262001647565b602082019050919050565b60006020820190508181036000830152620016b28162001670565b9050919050565b7f4e487b7100000000000000000000000000000000000000000000000000000000600052601160045260246000fd5b6000620016f58262000e23565b9150620017028362000e23565b9250827fffffffffffffffffffffffffffffffffffffffffffffffffffffffffffffffff038211156200173a5762001739620016b9565b5b828201905092915050565b7f4973737565722052657175657374206973206e6f7420617070726f7665642e00600082015250565b60006200177d601f8362000f22565b91506200178a8262001745565b602082019050919050565b60006020820190508181036000830152620017b0816200176e565b9050919050565b7f4f776e61626c653a206e6577206f776e657220697320746865207a65726f206160008201527f6464726573730000000000000000000000000000000000000000000000000000602082015250565b60006200181560268362000f22565b91506200182282620017b7565b604082019050919050565b60006020820190508181036000830152620018488162001806565b905091905056fe60806040523480156200001157600080fd5b506040516200462138038062004621833981810160405281019062000037919062000325565b6040518060400160405280601881526020017f506879736963616c204365727469666963617465204e465400000000000000008152506040518060400160405280600381526020017f50434e0000000000000000000000000000000000000000000000000000000000815250620000c3620000b76200013f60201b60201c565b6200014760201b60201c565b8160019080519060200190620000db9291906200020b565b508060029080519060200190620000f49291906200020b565b50505080600c60006101000a81548173ffffffffffffffffffffffffffffffffffffffff021916908373ffffffffffffffffffffffffffffffffffffffff16021790555050620003bc565b600033905090565b60008060009054906101000a900473ffffffffffffffffffffffffffffffffffffffff169050816000806101000a81548173ffffffffffffffffffffffffffffffffffffffff021916908373ffffffffffffffffffffffffffffffffffffffff1602179055508173ffffffffffffffffffffffffffffffffffffffff168173ffffffffffffffffffffffffffffffffffffffff167f8be0079c531659141344cd1fd0a4f28419497f9722a3daafe3b4186f6b6457e060405160405180910390a35050565b828054620002199062000386565b90600052602060002090601f0160209004810192826200023d576000855562000289565b82601f106200025857805160ff191683800117855562000289565b8280016001018555821562000289579182015b82811115620002885782518255916020019190600101906200026b565b5b5090506200029891906200029c565b5090565b5b80821115620002b75760008160009055506001016200029d565b5090565b600080fd5b600073ffffffffffffffffffffffffffffffffffffffff82169050919050565b6000620002ed82620002c0565b9050919050565b620002ff81620002e0565b81146200030b57600080fd5b50565b6000815190506200031f81620002f4565b92915050565b6000602082840312156200033e576200033d620002bb565b5b60006200034e848285016200030e565b91505092915050565b7f4e487b7100000000000000000000000000000000000000000000000000000000600052602260045260246000fd5b600060028204905060018216806200039f57607f821691505b60208210811415620003b657620003b562000357565b5b50919050565b61425580620003cc6000396000f3fe6080604052600436106101405760003560e01c80636352211e116100b6578063a22cb4651161006f578063a22cb465146104a8578063b88d4fde146104d1578063c87b56dd146104fa578063d645ddf614610537578063e985e9c514610567578063f2fde38b146105a457610140565b80636352211e1461038457806367a466d4146103c157806370a08231146103fe578063715018a61461043b5780638da5cb5b1461045257806395d89b411461047d57610140565b806319253f9b1161010857806319253f9b1461023e57806323b872dd1461027b5780632f745c59146102a457806336dbd2f9146102e157806342842e0e1461031e5780634f6ccce71461034757610140565b806301ffc9a71461014557806306fdde0314610182578063081812fc146101ad578063095ea7b3146101ea57806318160ddd14610213575b600080fd5b34801561015157600080fd5b5061016c60048036038101906101679190612992565b6105cd565b60405161017991906129da565b60405180910390f35b34801561018e57600080fd5b506101976105df565b6040516101a49190612a8e565b60405180910390f35b3480156101b957600080fd5b506101d460048036038101906101cf9190612ae6565b610671565b6040516101e19190612b54565b60405180910390f35b3480156101f657600080fd5b50610211600480360381019061020c9190612b9b565b6106f6565b005b34801561021f57600080fd5b5061022861080e565b6040516102359190612bea565b60405180910390f35b34801561024a57600080fd5b5061026560048036038101906102609190612d3a565b61081b565b60405161027291906129da565b60405180910390f35b34801561028757600080fd5b506102a2600480360381019061029d9190612df5565b610ae8565b005b3480156102b057600080fd5b506102cb60048036038101906102c69190612b9b565b610b48565b6040516102d89190612bea565b60405180910390f35b3480156102ed57600080fd5b5061030860048036038101906103039190612ae6565b610bed565b60405161031591906129da565b60405180910390f35b34801561032a57600080fd5b5061034560048036038101906103409190612df5565b610c62565b005b34801561035357600080fd5b5061036e60048036038101906103699190612ae6565b610c82565b60405161037b9190612bea565b60405180910390f35b34801561039057600080fd5b506103ab60048036038101906103a69190612ae6565b610cf3565b6040516103b89190612b54565b60405180910390f35b3480156103cd57600080fd5b506103e860048036038101906103e39190612e48565b610da5565b6040516103f59190612a8e565b60405180910390f35b34801561040a57600080fd5b5061042560048036038101906104209190612ea4565b610f36565b6040516104329190612bea565b60405180910390f35b34801561044757600080fd5b50610450610fee565b005b34801561045e57600080fd5b50610467611076565b6040516104749190612b54565b60405180910390f35b34801561048957600080fd5b5061049261109f565b60405161049f9190612a8e565b60405180910390f35b3480156104b457600080fd5b506104cf60048036038101906104ca9190612efd565b611131565b005b3480156104dd57600080fd5b506104f860048036038101906104f39190612fde565b611147565b005b34801561050657600080fd5b50610521600480360381019061051c9190612ae6565b6111a9565b60405161052e9190612a8e565b60405180910390f35b610551600480360381019061054c9190613061565b611250565b60405161055e9190612bea565b60405180910390f35b34801561057357600080fd5b5061058e60048036038101906105899190613108565b611348565b60405161059b91906129da565b60405180910390f35b3480156105b057600080fd5b506105cb60048036038101906105c69190612ea4565b6113dc565b005b60006105d8826114d4565b9050919050565b6060600180546105ee90613177565b80601f016020809104026020016040519081016040528092919081815260200182805461061a90613177565b80156106675780601f1061063c57610100808354040283529160200191610667565b820191906000526020600020905b81548152906001019060200180831161064a57829003601f168201915b5050505050905090565b600061067c8261154e565b6106bb576040517f08c379a00000000000000000000000000000000000000000000000000000000081526004016106b29061321b565b60405180910390fd5b6005600083815260200190815260200160002060009054906101000a900473ffffffffffffffffffffffffffffffffffffffff169050919050565b600061070182610cf3565b90508073ffffffffffffffffffffffffffffffffffffffff168373ffffffffffffffffffffffffffffffffffffffff161415610772576040517f08c379a0000000000000000000000000000000000000000000000000000000008152600401610769906132ad565b60405180910390fd5b8073ffffffffffffffffffffffffffffffffffffffff166107916115ba565b73ffffffffffffffffffffffffffffffffffffffff1614806107c057506107bf816107ba6115ba565b611348565b5b6107ff576040517f08c379a00000000000000000000000000000000000000000000000000000000081526004016107f69061333f565b60405180910390fd5b61080983836115c2565b505050565b6000600980549050905090565b60006108268561154e565b610865576040517f08c379a000000000000000000000000000000000000000000000000000000000815260040161085c906133ab565b60405180910390fd5b60001515600d600087815260200190815260200160002060020160149054906101000a900460ff161515146108cf576040517f08c379a00000000000000000000000000000000000000000000000000000000081526004016108c690613417565b60405180910390fd5b836040516020016108e09190613473565b60405160208183030381529060405280519060200120600d600087815260200190815260200160002060000160405160200161091c919061351e565b6040516020818303038152906040528051906020012014801561099f57508260405160200161094b9190613473565b60405160208183030381529060405280519060200120600d6000878152602001908152602001600020600101604051602001610987919061351e565b60405160208183030381529060405280519060200120145b6109de576040517f08c379a00000000000000000000000000000000000000000000000000000000081526004016109d5906135a7565b60405180910390fd5b610a0b600c60009054906101000a900473ffffffffffffffffffffffffffffffffffffffff16338761167b565b33600d600087815260200190815260200160002060020160006101000a81548173ffffffffffffffffffffffffffffffffffffffff021916908373ffffffffffffffffffffffffffffffffffffffff1602179055506001600d600087815260200190815260200160002060020160146101000a81548160ff02191690831515021790555081600d60008781526020019081526020016000206003019080519060200190610ab9929190612883565b50600d600086815260200190815260200160002060020160149054906101000a900460ff169050949350505050565b610af9610af36115ba565b826118e2565b610b38576040517f08c379a0000000000000000000000000000000000000000000000000000000008152600401610b2f90613639565b60405180910390fd5b610b4383838361167b565b505050565b6000610b5383610f36565b8210610b94576040517f08c379a0000000000000000000000000000000000000000000000000000000008152600401610b8b906136cb565b60405180910390fd5b600760008473ffffffffffffffffffffffffffffffffffffffff1673ffffffffffffffffffffffffffffffffffffffff168152602001908152602001600020600083815260200190815260200160002054905092915050565b6000610bf88261154e565b610c37576040517f08c379a0000000000000000000000000000000000000000000000000000000008152600401610c2e906133ab565b60405180910390fd5b600d600083815260200190815260200160002060020160149054906101000a900460ff169050919050565b610c7d83838360405180602001604052806000815250611147565b505050565b6000610c8c61080e565b8210610ccd576040517f08c379a0000000000000000000000000000000000000000000000000000000008152600401610cc49061375d565b60405180910390fd5b60098281548110610ce157610ce061377d565b5b90600052602060002001549050919050565b6000806003600084815260200190815260200160002060009054906101000a900473ffffffffffffffffffffffffffffffffffffffff169050600073ffffffffffffffffffffffffffffffffffffffff168173ffffffffffffffffffffffffffffffffffffffff161415610d9c576040517f08c379a0000000000000000000000000000000000000000000000000000000008152600401610d939061381e565b60405180910390fd5b80915050919050565b6060610db08361154e565b610def576040517f08c379a0000000000000000000000000000000000000000000000000000000008152600401610de6906133ab565b60405180910390fd5b81604051602001610e009190613473565b60405160208183030381529060405280519060200120600d6000858152602001908152602001600020600101604051602001610e3c919061351e565b6040516020818303038152906040528051906020012014610e92576040517f08c379a0000000000000000000000000000000000000000000000000000000008152600401610e899061388a565b60405180910390fd5b600e60008481526020019081526020016000208054610eb090613177565b80601f0160208091040260200160405190810160405280929190818152602001828054610edc90613177565b8015610f295780601f10610efe57610100808354040283529160200191610f29565b820191906000526020600020905b815481529060010190602001808311610f0c57829003601f168201915b5050505050905092915050565b60008073ffffffffffffffffffffffffffffffffffffffff168273ffffffffffffffffffffffffffffffffffffffff161415610fa7576040517f08c379a0000000000000000000000000000000000000000000000000000000008152600401610f9e9061391c565b60405180910390fd5b600460008373ffffffffffffffffffffffffffffffffffffffff1673ffffffffffffffffffffffffffffffffffffffff168152602001908152602001600020549050919050565b610ff66115ba565b73ffffffffffffffffffffffffffffffffffffffff16611014611076565b73ffffffffffffffffffffffffffffffffffffffff161461106a576040517f08c379a000000000000000000000000000000000000000000000000000000000815260040161106190613988565b60405180910390fd5b61107460006119c0565b565b60008060009054906101000a900473ffffffffffffffffffffffffffffffffffffffff16905090565b6060600280546110ae90613177565b80601f01602080910402602001604051908101604052809291908181526020018280546110da90613177565b80156111275780601f106110fc57610100808354040283529160200191611127565b820191906000526020600020905b81548152906001019060200180831161110a57829003601f168201915b5050505050905090565b61114361113c6115ba565b8383611a84565b5050565b6111586111526115ba565b836118e2565b611197576040517f08c379a000000000000000000000000000000000000000000000000000000000815260040161118e90613639565b60405180910390fd5b6111a384848484611bf1565b50505050565b60606111b48261154e565b6111f3576040517f08c379a00000000000000000000000000000000000000000000000000000000081526004016111ea90613a1a565b60405180910390fd5b60006111fd611c4d565b9050600081511161121d5760405180602001604052806000815250611248565b8061122784611c64565b604051602001611238929190613a3a565b6040516020818303038152906040525b915050919050565b60003373ffffffffffffffffffffffffffffffffffffffff16600c60009054906101000a900473ffffffffffffffffffffffffffffffffffffffff1673ffffffffffffffffffffffffffffffffffffffff16146112ac57600080fd5b662386f26fc100003410156112f6576040517f08c379a00000000000000000000000000000000000000000000000000000000081526004016112ed90613aaa565b60405180910390fd5b6000611302600b611dc5565b905061130e3382611dd3565b611318600b611fad565b6113228184611fc3565b61133d85858360405180602001604052806000815250612037565b809150509392505050565b6000600660008473ffffffffffffffffffffffffffffffffffffffff1673ffffffffffffffffffffffffffffffffffffffff16815260200190815260200160002060008373ffffffffffffffffffffffffffffffffffffffff1673ffffffffffffffffffffffffffffffffffffffff16815260200190815260200160002060009054906101000a900460ff16905092915050565b6113e46115ba565b73ffffffffffffffffffffffffffffffffffffffff16611402611076565b73ffffffffffffffffffffffffffffffffffffffff1614611458576040517f08c379a000000000000000000000000000000000000000000000000000000000815260040161144f90613988565b60405180910390fd5b600073ffffffffffffffffffffffffffffffffffffffff168173ffffffffffffffffffffffffffffffffffffffff1614156114c8576040517f08c379a00000000000000000000000000000000000000000000000000000000081526004016114bf90613b3c565b60405180910390fd5b6114d1816119c0565b50565b60007f780e9d63000000000000000000000000000000000000000000000000000000007bffffffffffffffffffffffffffffffffffffffffffffffffffffffff1916827bffffffffffffffffffffffffffffffffffffffffffffffffffffffff19161480611547575061154682612158565b5b9050919050565b60008073ffffffffffffffffffffffffffffffffffffffff166003600084815260200190815260200160002060009054906101000a900473ffffffffffffffffffffffffffffffffffffffff1673ffffffffffffffffffffffffffffffffffffffff1614159050919050565b600033905090565b816005600083815260200190815260200160002060006101000a81548173ffffffffffffffffffffffffffffffffffffffff021916908373ffffffffffffffffffffffffffffffffffffffff160217905550808273ffffffffffffffffffffffffffffffffffffffff1661163583610cf3565b73ffffffffffffffffffffffffffffffffffffffff167f8c5be1e5ebec7d5bd14f71427d1e84f3dd0314c0f7b2291e5b200ac8c7c3b92560405160405180910390a45050565b8273ffffffffffffffffffffffffffffffffffffffff1661169b82610cf3565b73ffffffffffffffffffffffffffffffffffffffff16146116f1576040517f08c379a00000000000000000000000000000000000000000000000000000000081526004016116e890613bce565b60405180910390fd5b600073ffffffffffffffffffffffffffffffffffffffff168273ffffffffffffffffffffffffffffffffffffffff161415611761576040517f08c379a000000000000000000000000000000000000000000000000000000000815260040161175890613c60565b60405180910390fd5b61176c83838361223a565b6117776000826115c2565b6001600460008573ffffffffffffffffffffffffffffffffffffffff1673ffffffffffffffffffffffffffffffffffffffff16815260200190815260200160002060008282546117c79190613caf565b925050819055506001600460008473ffffffffffffffffffffffffffffffffffffffff1673ffffffffffffffffffffffffffffffffffffffff168152602001908152602001600020600082825461181e9190613ce3565b92505081905550816003600083815260200190815260200160002060006101000a81548173ffffffffffffffffffffffffffffffffffffffff021916908373ffffffffffffffffffffffffffffffffffffffff160217905550808273ffffffffffffffffffffffffffffffffffffffff168473ffffffffffffffffffffffffffffffffffffffff167fddf252ad1be2c89b69c2b068fc378daa952ba7f163c4a11628f55a4df523b3ef60405160405180910390a46118dd83838361224a565b505050565b60006118ed8261154e565b61192c576040517f08c379a000000000000000000000000000000000000000000000000000000000815260040161192390613dab565b60405180910390fd5b600061193783610cf3565b90508073ffffffffffffffffffffffffffffffffffffffff168473ffffffffffffffffffffffffffffffffffffffff16148061197957506119788185611348565b5b806119b757508373ffffffffffffffffffffffffffffffffffffffff1661199f84610671565b73ffffffffffffffffffffffffffffffffffffffff16145b91505092915050565b60008060009054906101000a900473ffffffffffffffffffffffffffffffffffffffff169050816000806101000a81548173ffffffffffffffffffffffffffffffffffffffff021916908373ffffffffffffffffffffffffffffffffffffffff1602179055508173ffffffffffffffffffffffffffffffffffffffff168173ffffffffffffffffffffffffffffffffffffffff167f8be0079c531659141344cd1fd0a4f28419497f9722a3daafe3b4186f6b6457e060405160405180910390a35050565b8173ffffffffffffffffffffffffffffffffffffffff168373ffffffffffffffffffffffffffffffffffffffff161415611af3576040517f08c379a0000000000000000000000000000000000000000000000000000000008152600401611aea90613e17565b60405180910390fd5b80600660008573ffffffffffffffffffffffffffffffffffffffff1673ffffffffffffffffffffffffffffffffffffffff16815260200190815260200160002060008473ffffffffffffffffffffffffffffffffffffffff1673ffffffffffffffffffffffffffffffffffffffff16815260200190815260200160002060006101000a81548160ff0219169083151502179055508173ffffffffffffffffffffffffffffffffffffffff168373ffffffffffffffffffffffffffffffffffffffff167f17307eab39ab6107e8899845ad3d59bd9653f200f220920489ca2b5937696c3183604051611be491906129da565b60405180910390a3505050565b611bfc84848461167b565b611c088484848461224f565b611c47576040517f08c379a0000000000000000000000000000000000000000000000000000000008152600401611c3e90613ea9565b60405180910390fd5b50505050565b606060405180602001604052806000815250905090565b60606000821415611cac576040518060400160405280600181526020017f30000000000000000000000000000000000000000000000000000000000000008152509050611dc0565b600082905060005b60008214611cde578080611cc790613ec9565b915050600a82611cd79190613f41565b9150611cb4565b60008167ffffffffffffffff811115611cfa57611cf9612c0f565b5b6040519080825280601f01601f191660200182016040528015611d2c5781602001600182028036833780820191505090505b5090505b60008514611db957600182611d459190613caf565b9150600a85611d549190613f72565b6030611d609190613ce3565b60f81b818381518110611d7657611d7561377d565b5b60200101907effffffffffffffffffffffffffffffffffffffffffffffffffffffffffffff1916908160001a905350600a85611db29190613f41565b9450611d30565b8093505050505b919050565b600081600001549050919050565b600073ffffffffffffffffffffffffffffffffffffffff168273ffffffffffffffffffffffffffffffffffffffff161415611e43576040517f08c379a0000000000000000000000000000000000000000000000000000000008152600401611e3a90613fef565b60405180910390fd5b611e4c8161154e565b15611e8c576040517f08c379a0000000000000000000000000000000000000000000000000000000008152600401611e839061405b565b60405180910390fd5b611e986000838361223a565b6001600460008473ffffffffffffffffffffffffffffffffffffffff1673ffffffffffffffffffffffffffffffffffffffff1681526020019081526020016000206000828254611ee89190613ce3565b92505081905550816003600083815260200190815260200160002060006101000a81548173ffffffffffffffffffffffffffffffffffffffff021916908373ffffffffffffffffffffffffffffffffffffffff160217905550808273ffffffffffffffffffffffffffffffffffffffff16600073ffffffffffffffffffffffffffffffffffffffff167fddf252ad1be2c89b69c2b068fc378daa952ba7f163c4a11628f55a4df523b3ef60405160405180910390a4611fa96000838361224a565b5050565b6001816000016000828254019250508190555050565b611fcc8261154e565b61200b576040517f08c379a0000000000000000000000000000000000000000000000000000000008152600401612002906140ed565b60405180910390fd5b80600e60008481526020019081526020016000209080519060200190612032929190612883565b505050565b60006040518060a00160405280868152602001858152602001600073ffffffffffffffffffffffffffffffffffffffff16815260200160001515815260200183815250905080600d600085815260200190815260200160002060008201518160000190805190602001906120ac929190612883565b5060208201518160010190805190602001906120c9929190612883565b5060408201518160020160006101000a81548173ffffffffffffffffffffffffffffffffffffffff021916908373ffffffffffffffffffffffffffffffffffffffff16021790555060608201518160020160146101000a81548160ff021916908315150217905550608082015181600301908051906020019061214d929190612883565b509050505050505050565b60007f80ac58cd000000000000000000000000000000000000000000000000000000007bffffffffffffffffffffffffffffffffffffffffffffffffffffffff1916827bffffffffffffffffffffffffffffffffffffffffffffffffffffffff1916148061222357507f5b5e139f000000000000000000000000000000000000000000000000000000007bffffffffffffffffffffffffffffffffffffffffffffffffffffffff1916827bffffffffffffffffffffffffffffffffffffffffffffffffffffffff1916145b806122335750612232826123d7565b5b9050919050565b612245838383612441565b505050565b505050565b60006122708473ffffffffffffffffffffffffffffffffffffffff16612555565b156123ca578373ffffffffffffffffffffffffffffffffffffffff1663150b7a026122996115ba565b8786866040518563ffffffff1660e01b81526004016122bb9493929190614162565b6020604051808303816000875af19250505080156122f757506040513d601f19601f820116820180604052508101906122f491906141c3565b60015b61237a573d8060008114612327576040519150601f19603f3d011682016040523d82523d6000602084013e61232c565b606091505b50600081511415612372576040517f08c379a000000000000000000000000000000000000000000000000000000000815260040161236990613ea9565b60405180910390fd5b805181602001fd5b63150b7a0260e01b7bffffffffffffffffffffffffffffffffffffffffffffffffffffffff1916817bffffffffffffffffffffffffffffffffffffffffffffffffffffffff1916149150506123cf565b600190505b949350505050565b60007f01ffc9a7000000000000000000000000000000000000000000000000000000007bffffffffffffffffffffffffffffffffffffffffffffffffffffffff1916827bffffffffffffffffffffffffffffffffffffffffffffffffffffffff1916149050919050565b61244c838383612578565b600073ffffffffffffffffffffffffffffffffffffffff168373ffffffffffffffffffffffffffffffffffffffff16141561248f5761248a8161257d565b6124ce565b8173ffffffffffffffffffffffffffffffffffffffff168373ffffffffffffffffffffffffffffffffffffffff16146124cd576124cc83826125c6565b5b5b600073ffffffffffffffffffffffffffffffffffffffff168273ffffffffffffffffffffffffffffffffffffffff1614156125115761250c81612733565b612550565b8273ffffffffffffffffffffffffffffffffffffffff168273ffffffffffffffffffffffffffffffffffffffff161461254f5761254e8282612804565b5b5b505050565b6000808273ffffffffffffffffffffffffffffffffffffffff163b119050919050565b505050565b600980549050600a600083815260200190815260200160002081905550600981908060018154018082558091505060019003906000526020600020016000909190919091505550565b600060016125d384610f36565b6125dd9190613caf565b90506000600860008481526020019081526020016000205490508181146126c2576000600760008673ffffffffffffffffffffffffffffffffffffffff1673ffffffffffffffffffffffffffffffffffffffff168152602001908152602001600020600084815260200190815260200160002054905080600760008773ffffffffffffffffffffffffffffffffffffffff1673ffffffffffffffffffffffffffffffffffffffff168152602001908152602001600020600084815260200190815260200160002081905550816008600083815260200190815260200160002081905550505b6008600084815260200190815260200160002060009055600760008573ffffffffffffffffffffffffffffffffffffffff1673ffffffffffffffffffffffffffffffffffffffff16815260200190815260200160002060008381526020019081526020016000206000905550505050565b600060016009805490506127479190613caf565b90506000600a60008481526020019081526020016000205490506000600983815481106127775761277661377d565b5b9060005260206000200154905080600983815481106127995761279861377d565b5b906000526020600020018190555081600a600083815260200190815260200160002081905550600a60008581526020019081526020016000206000905560098054806127e8576127e76141f0565b5b6001900381819060005260206000200160009055905550505050565b600061280f83610f36565b905081600760008573ffffffffffffffffffffffffffffffffffffffff1673ffffffffffffffffffffffffffffffffffffffff168152602001908152602001600020600083815260200190815260200160002081905550806008600084815260200190815260200160002081905550505050565b82805461288f90613177565b90600052602060002090601f0160209004810192826128b157600085556128f8565b82601f106128ca57805160ff19168380011785556128f8565b828001600101855582156128f8579182015b828111156128f75782518255916020019190600101906128dc565b5b5090506129059190612909565b5090565b5b8082111561292257600081600090555060010161290a565b5090565b6000604051905090565b600080fd5b600080fd5b60007fffffffff0000000000000000000000000000000000000000000000000000000082169050919050565b61296f8161293a565b811461297a57600080fd5b50565b60008135905061298c81612966565b92915050565b6000602082840312156129a8576129a7612930565b5b60006129b68482850161297d565b91505092915050565b60008115159050919050565b6129d4816129bf565b82525050565b60006020820190506129ef60008301846129cb565b92915050565b600081519050919050565b600082825260208201905092915050565b60005b83811015612a2f578082015181840152602081019050612a14565b83811115612a3e576000848401525b50505050565b6000601f19601f8301169050919050565b6000612a60826129f5565b612a6a8185612a00565b9350612a7a818560208601612a11565b612a8381612a44565b840191505092915050565b60006020820190508181036000830152612aa88184612a55565b905092915050565b6000819050919050565b612ac381612ab0565b8114612ace57600080fd5b50565b600081359050612ae081612aba565b92915050565b600060208284031215612afc57612afb612930565b5b6000612b0a84828501612ad1565b91505092915050565b600073ffffffffffffffffffffffffffffffffffffffff82169050919050565b6000612b3e82612b13565b9050919050565b612b4e81612b33565b82525050565b6000602082019050612b696000830184612b45565b92915050565b612b7881612b33565b8114612b8357600080fd5b50565b600081359050612b9581612b6f565b92915050565b60008060408385031215612bb257612bb1612930565b5b6000612bc085828601612b86565b9250506020612bd185828601612ad1565b9150509250929050565b612be481612ab0565b82525050565b6000602082019050612bff6000830184612bdb565b92915050565b600080fd5b600080fd5b7f4e487b7100000000000000000000000000000000000000000000000000000000600052604160045260246000fd5b612c4782612a44565b810181811067ffffffffffffffff82111715612c6657612c65612c0f565b5b80604052505050565b6000612c79612926565b9050612c858282612c3e565b919050565b600067ffffffffffffffff821115612ca557612ca4612c0f565b5b612cae82612a44565b9050602081019050919050565b82818337600083830152505050565b6000612cdd612cd884612c8a565b612c6f565b905082815260208101848484011115612cf957612cf8612c0a565b5b612d04848285612cbb565b509392505050565b600082601f830112612d2157612d20612c05565b5b8135612d31848260208601612cca565b91505092915050565b60008060008060808587031215612d5457612d53612930565b5b6000612d6287828801612ad1565b945050602085013567ffffffffffffffff811115612d8357612d82612935565b5b612d8f87828801612d0c565b935050604085013567ffffffffffffffff811115612db057612daf612935565b5b612dbc87828801612d0c565b925050606085013567ffffffffffffffff811115612ddd57612ddc612935565b5b612de987828801612d0c565b91505092959194509250565b600080600060608486031215612e0e57612e0d612930565b5b6000612e1c86828701612b86565b9350506020612e2d86828701612b86565b9250506040612e3e86828701612ad1565b9150509250925092565b60008060408385031215612e5f57612e5e612930565b5b6000612e6d85828601612ad1565b925050602083013567ffffffffffffffff811115612e8e57612e8d612935565b5b612e9a85828601612d0c565b9150509250929050565b600060208284031215612eba57612eb9612930565b5b6000612ec884828501612b86565b91505092915050565b612eda816129bf565b8114612ee557600080fd5b50565b600081359050612ef781612ed1565b92915050565b60008060408385031215612f1457612f13612930565b5b6000612f2285828601612b86565b9250506020612f3385828601612ee8565b9150509250929050565b600067ffffffffffffffff821115612f5857612f57612c0f565b5b612f6182612a44565b9050602081019050919050565b6000612f81612f7c84612f3d565b612c6f565b905082815260208101848484011115612f9d57612f9c612c0a565b5b612fa8848285612cbb565b509392505050565b600082601f830112612fc557612fc4612c05565b5b8135612fd5848260208601612f6e565b91505092915050565b60008060008060808587031215612ff857612ff7612930565b5b600061300687828801612b86565b945050602061301787828801612b86565b935050604061302887828801612ad1565b925050606085013567ffffffffffffffff81111561304957613048612935565b5b61305587828801612fb0565b91505092959194509250565b60008060006060848603121561307a57613079612930565b5b600084013567ffffffffffffffff81111561309857613097612935565b5b6130a486828701612d0c565b935050602084013567ffffffffffffffff8111156130c5576130c4612935565b5b6130d186828701612d0c565b925050604084013567ffffffffffffffff8111156130f2576130f1612935565b5b6130fe86828701612d0c565b9150509250925092565b6000806040838503121561311f5761311e612930565b5b600061312d85828601612b86565b925050602061313e85828601612b86565b9150509250929050565b7f4e487b7100000000000000000000000000000000000000000000000000000000600052602260045260246000fd5b6000600282049050600182168061318f57607f821691505b602082108114156131a3576131a2613148565b5b50919050565b7f4552433732313a20617070726f76656420717565727920666f72206e6f6e657860008201527f697374656e7420746f6b656e0000000000000000000000000000000000000000602082015250565b6000613205602c83612a00565b9150613210826131a9565b604082019050919050565b60006020820190508181036000830152613234816131f8565b9050919050565b7f4552433732313a20617070726f76616c20746f2063757272656e74206f776e6560008201527f7200000000000000000000000000000000000000000000000000000000000000602082015250565b6000613297602183612a00565b91506132a28261323b565b604082019050919050565b600060208201905081810360008301526132c68161328a565b9050919050565b7f4552433732313a20617070726f76652063616c6c6572206973206e6f74206f7760008201527f6e6572206e6f7220617070726f76656420666f7220616c6c0000000000000000602082015250565b6000613329603883612a00565b9150613334826132cd565b604082019050919050565b600060208201905081810360008301526133588161331c565b9050919050565b7f5468697320546f6b656e6964206e6f74206578697374732e0000000000000000600082015250565b6000613395601883612a00565b91506133a08261335f565b602082019050919050565b600060208201905081810360008301526133c481613388565b9050919050565b7f546869732070726f6475637420616c7265647920636c61696d65642e00000000600082015250565b6000613401601c83612a00565b915061340c826133cb565b602082019050919050565b60006020820190508181036000830152613430816133f4565b9050919050565b600081905092915050565b600061344d826129f5565b6134578185613437565b9350613467818560208601612a11565b80840191505092915050565b600061347f8284613442565b915081905092915050565b60008190508160005260206000209050919050565b600081546134ac81613177565b6134b68186613437565b945060018216600081146134d157600181146134e257613515565b60ff19831686528186019350613515565b6134eb8561348a565b60005b8381101561350d578154818901526001820191506020810190506134ee565b838801955050505b50505092915050565b600061352a828461349f565b915081905092915050565b7f5468697320636c61696d6572206973206e6f7420617574686f72697a6520746f60008201527f20636c61696d2063657274696669636174652e00000000000000000000000000602082015250565b6000613591603383612a00565b915061359c82613535565b604082019050919050565b600060208201905081810360008301526135c081613584565b9050919050565b7f4552433732313a207472616e736665722063616c6c6572206973206e6f74206f60008201527f776e6572206e6f7220617070726f766564000000000000000000000000000000602082015250565b6000613623603183612a00565b915061362e826135c7565b604082019050919050565b6000602082019050818103600083015261365281613616565b9050919050565b7f455243373231456e756d657261626c653a206f776e657220696e646578206f7560008201527f74206f6620626f756e6473000000000000000000000000000000000000000000602082015250565b60006136b5602b83612a00565b91506136c082613659565b604082019050919050565b600060208201905081810360008301526136e4816136a8565b9050919050565b7f455243373231456e756d657261626c653a20676c6f62616c20696e646578206f60008201527f7574206f6620626f756e64730000000000000000000000000000000000000000602082015250565b6000613747602c83612a00565b9150613752826136eb565b604082019050919050565b600060208201905081810360008301526137768161373a565b9050919050565b7f4e487b7100000000000000000000000000000000000000000000000000000000600052603260045260246000fd5b7f4552433732313a206f776e657220717565727920666f72206e6f6e657869737460008201527f656e7420746f6b656e0000000000000000000000000000000000000000000000602082015250565b6000613808602983612a00565b9150613813826137ac565b604082019050919050565b60006020820190508181036000830152613837816137fb565b9050919050565b7f456e74657265642070696e206973206e6f742076616c69642e00000000000000600082015250565b6000613874601983612a00565b915061387f8261383e565b602082019050919050565b600060208201905081810360008301526138a381613867565b9050919050565b7f4552433732313a2062616c616e636520717565727920666f7220746865207a6560008201527f726f206164647265737300000000000000000000000000000000000000000000602082015250565b6000613906602a83612a00565b9150613911826138aa565b604082019050919050565b60006020820190508181036000830152613935816138f9565b9050919050565b7f4f776e61626c653a2063616c6c6572206973206e6f7420746865206f776e6572600082015250565b6000613972602083612a00565b915061397d8261393c565b602082019050919050565b600060208201905081810360008301526139a181613965565b9050919050565b7f4552433732314d657461646174613a2055524920717565727920666f72206e6f60008201527f6e6578697374656e7420746f6b656e0000000000000000000000000000000000602082015250565b6000613a04602f83612a00565b9150613a0f826139a8565b604082019050919050565b60006020820190508181036000830152613a33816139f7565b9050919050565b6000613a468285613442565b9150613a528284613442565b91508190509392505050565b7f52657175697265206d696e696d756d206d696e74696e6720616d6f756e742e00600082015250565b6000613a94601f83612a00565b9150613a9f82613a5e565b602082019050919050565b60006020820190508181036000830152613ac381613a87565b9050919050565b7f4f776e61626c653a206e6577206f776e657220697320746865207a65726f206160008201527f6464726573730000000000000000000000000000000000000000000000000000602082015250565b6000613b26602683612a00565b9150613b3182613aca565b604082019050919050565b60006020820190508181036000830152613b5581613b19565b9050919050565b7f4552433732313a207472616e736665722066726f6d20696e636f72726563742060008201527f6f776e6572000000000000000000000000000000000000000000000000000000602082015250565b6000613bb8602583612a00565b9150613bc382613b5c565b604082019050919050565b60006020820190508181036000830152613be781613bab565b9050919050565b7f4552433732313a207472616e7366657220746f20746865207a65726f2061646460008201527f7265737300000000000000000000000000000000000000000000000000000000602082015250565b6000613c4a602483612a00565b9150613c5582613bee565b604082019050919050565b60006020820190508181036000830152613c7981613c3d565b9050919050565b7f4e487b7100000000000000000000000000000000000000000000000000000000600052601160045260246000fd5b6000613cba82612ab0565b9150613cc583612ab0565b925082821015613cd857613cd7613c80565b5b828203905092915050565b6000613cee82612ab0565b9150613cf983612ab0565b9250827fffffffffffffffffffffffffffffffffffffffffffffffffffffffffffffffff03821115613d2e57613d2d613c80565b5b828201905092915050565b7f4552433732313a206f70657261746f7220717565727920666f72206e6f6e657860008201527f697374656e7420746f6b656e0000000000000000000000000000000000000000602082015250565b6000613d95602c83612a00565b9150613da082613d39565b604082019050919050565b60006020820190508181036000830152613dc481613d88565b9050919050565b7f4552433732313a20617070726f766520746f2063616c6c657200000000000000600082015250565b6000613e01601983612a00565b9150613e0c82613dcb565b602082019050919050565b60006020820190508181036000830152613e3081613df4565b9050919050565b7f4552433732313a207472616e7366657220746f206e6f6e20455243373231526560008201527f63656976657220696d706c656d656e7465720000000000000000000000000000602082015250565b6000613e93603283612a00565b9150613e9e82613e37565b604082019050919050565b60006020820190508181036000830152613ec281613e86565b9050919050565b6000613ed482612ab0565b91507fffffffffffffffffffffffffffffffffffffffffffffffffffffffffffffffff821415613f0757613f06613c80565b5b600182019050919050565b7f4e487b7100000000000000000000000000000000000000000000000000000000600052601260045260246000fd5b6000613f4c82612ab0565b9150613f5783612ab0565b925082613f6757613f66613f12565b5b828204905092915050565b6000613f7d82612ab0565b9150613f8883612ab0565b925082613f9857613f97613f12565b5b828206905092915050565b7f4552433732313a206d696e7420746f20746865207a65726f2061646472657373600082015250565b6000613fd9602083612a00565b9150613fe482613fa3565b602082019050919050565b6000602082019050818103600083015261400881613fcc565b9050919050565b7f4552433732313a20746f6b656e20616c7265616479206d696e74656400000000600082015250565b6000614045601c83612a00565b91506140508261400f565b602082019050919050565b6000602082019050818103600083015261407481614038565b9050919050565b7f45524337323155524953746f726167653a2055524920736574206f66206e6f6e60008201527f6578697374656e7420746f6b656e000000000000000000000000000000000000602082015250565b60006140d7602e83612a00565b91506140e28261407b565b604082019050919050565b60006020820190508181036000830152614106816140ca565b9050919050565b600081519050919050565b600082825260208201905092915050565b60006141348261410d565b61413e8185614118565b935061414e818560208601612a11565b61415781612a44565b840191505092915050565b60006080820190506141776000830187612b45565b6141846020830186612b45565b6141916040830185612bdb565b81810360608301526141a38184614129565b905095945050505050565b6000815190506141bd81612966565b92915050565b6000602082840312156141d9576141d8612930565b5b60006141e7848285016141ae565b91505092915050565b7f4e487b7100000000000000000000000000000000000000000000000000000000600052603160045260246000fdfea2646970667358221220ea02a296938dc16d920beed2de37d38a173734650de34956f4de41a390295f9b64736f6c634300080a0033a2646970667358221220cb1eb41accd2130191a6327cb87d68cd57ecad14a28710dc9fcc8b4e4d539daf64736f6c634300080a0033",
  "immutableReferences": {},
  "source": "// SPDX-License-Identifier: MIT\r\npragma solidity >=0.4.22 <0.9.0;\r\n\r\nimport \"@openzeppelin/contracts/access/Ownable.sol\";\r\nimport \"@openzeppelin/contracts/token/ERC721/ERC721.sol\";\r\nimport \"@openzeppelin/contracts/token/ERC721/extensions/ERC721Enumerable.sol\";\r\nimport \"@openzeppelin/contracts/utils/Counters.sol\";\r\n\r\ncontract ByOrigin is Ownable {\r\n    address private admin;\r\n    struct IssuerRequest {\r\n        address issuerAddress;\r\n        string issuerCID;\r\n        bool approval; \r\n    }\r\n    struct IssuerContract {\r\n        address contractaddress;\r\n        string contractName;\r\n        uint256 requestIndex;\r\n        string contractType;\r\n    }\r\n    struct IssuerContractArray {\r\n        IssuerContract[] contractArray;\r\n    }\r\n    IssuerRequest[] public issuerRequest;\r\n    uint256 public approvalCounts;\r\n    mapping(address=>IssuerContractArray) issuerListOfContract;\r\n    mapping(address=>bool) public issuerAddress;\r\n    \r\n    constructor() {\r\n        admin = msg.sender;\r\n    }\r\n\r\n    function applyForRequest(string memory _issuerCID) public {\r\n        require(!issuerAddress[msg.sender],'Alaredy register as Issuer.');\r\n        issuerRequest.push(IssuerRequest({\r\n            issuerAddress:msg.sender,\r\n            issuerCID:_issuerCID,\r\n            approval:false\r\n        }));\r\n        issuerAddress[msg.sender] = true;\r\n    }\r\n\r\n    function approveRequest(uint256 _index) public {\r\n        require(issuerRequest[_index].approval == false, 'Issuer request already approved.');\r\n        issuerRequest[_index].approval = true;\r\n        approvalCounts = approvalCounts + 1;\r\n    }\r\n\r\n    function issuerRequestCount() public view returns (uint256 result)  {\r\n        uint256 length = issuerRequest.length;\r\n        return length;\r\n    }\r\n\r\n    function getOwnerContract(address _issuerAddress) public view returns(IssuerContract[] memory) {\r\n        return(issuerListOfContract[_issuerAddress].contractArray);\r\n    }\r\n\r\n    function createNewContract(uint256 _index,string memory _contractType,string memory _contractName) public {\r\n        require(issuerRequest[_index].issuerAddress == msg.sender && issuerRequest[_index].approval == true,'Issuer Request is not approved.');\r\n        address newContract = address(new physicalProduct(msg.sender));\r\n        \r\n        issuerListOfContract[msg.sender].contractArray.push(IssuerContract({\r\n            contractaddress:newContract,\r\n            contractName:_contractName,\r\n            requestIndex: _index,\r\n            contractType: _contractType\r\n        }));\r\n    }\r\n}\r\n\r\ncontract physicalProduct is Ownable,ERC721,ERC721Enumerable {\r\n    using Counters for Counters.Counter;\r\n    Counters.Counter private _tokenIds;\r\n\r\n    struct Claimer {\r\n        string secretPassword;\r\n        string secretPin;\r\n        address claimerAddress;\r\n        bool claimStatus;\r\n        string email;\r\n    }\r\n    address admin;\r\n    mapping(uint256=>Claimer) tokenIdToClaimer;\r\n    mapping(uint256 => string) private _tokenURIs;\r\n   \r\n\r\n    constructor(address issuerAddress) ERC721('Physical Certificate NFT','PCN'){\r\n        admin = issuerAddress;\r\n    }\r\n    modifier restricted() {\r\n        require(admin == msg.sender);\r\n        _;\r\n    }\r\n\r\n    function mint(string memory _secretPassword,string memory _secretPin,string memory _tokenURI) public payable restricted returns(uint256){\r\n        require(msg.value >= 0.01 ether, 'Require minimum minting amount.');\r\n        uint256 _newTokenId = _tokenIds.current();\r\n        _mint(msg.sender,_newTokenId);\r\n        _tokenIds.increment();\r\n        _setTokenURI(_newTokenId, _tokenURI);\r\n        setClaimerDetail(_secretPassword,_secretPin,_newTokenId,'');\r\n        \r\n        return _newTokenId;\r\n    }\r\n\r\n    function _setTokenURI(uint256 tokenId, string memory _tokenURI) internal virtual {\r\n        require(_exists(tokenId), \"ERC721URIStorage: URI set of nonexistent token\");\r\n        _tokenURIs[tokenId] = _tokenURI;\r\n    }\r\n\r\n    function setClaimerDetail(string memory _secretPassword,string memory _secretPin,uint256 _tokenId,string memory _email) internal {\r\n        Claimer memory newClaimerDetails = Claimer({\r\n            secretPassword:_secretPassword,\r\n            secretPin:_secretPin,\r\n            claimerAddress: address(0x00),\r\n            claimStatus:false,\r\n            email:_email\r\n        });\r\n        tokenIdToClaimer[_tokenId] = newClaimerDetails;\r\n\r\n    }\r\n\r\n    function claimProduct(uint256 _tokenId,string memory _secretPassword,string memory _secretPin,string memory _email) public returns (bool result){\r\n        require(_exists(_tokenId), 'This Tokenid not exists.');\r\n        require(tokenIdToClaimer[_tokenId].claimStatus == false, 'This product alredy claimed.');\r\n        require((keccak256(abi.encodePacked(tokenIdToClaimer[_tokenId].secretPassword)) == keccak256(abi.encodePacked(_secretPassword)) && keccak256(abi.encodePacked(tokenIdToClaimer[_tokenId].secretPin)) == keccak256(abi.encodePacked(_secretPin))), 'This claimer is not authorize to claim certificate.');\r\n        _transfer(admin, msg.sender, _tokenId);\r\n        tokenIdToClaimer[_tokenId].claimerAddress = msg.sender;\r\n        tokenIdToClaimer[_tokenId].claimStatus = true;\r\n        tokenIdToClaimer[_tokenId].email = _email;\r\n        return tokenIdToClaimer[_tokenId].claimStatus;\r\n    }\r\n\r\n    function checkAuthenticity(uint256 _tokenId,string memory _secretPin) public view returns (string memory result) {\r\n        require(_exists(_tokenId), 'This Tokenid not exists.');\r\n        require(keccak256(abi.encodePacked(tokenIdToClaimer[_tokenId].secretPin)) == keccak256(abi.encodePacked(_secretPin)), 'Entered pin is not valid.');\r\n        return _tokenURIs[_tokenId];\r\n    }\r\n\r\n    function getClaimStatus(uint256 _tokenId) public view returns (bool result){\r\n        require(_exists(_tokenId), 'This Tokenid not exists.');\r\n        return (tokenIdToClaimer[_tokenId].claimStatus);\r\n    }\r\n    \r\n\r\n    function supportsInterface(bytes4 interfaceId) public view virtual override(ERC721, ERC721Enumerable) returns (bool) {\r\n        return super.supportsInterface(interfaceId);\r\n    }\r\n\r\n    function _beforeTokenTransfer(\r\n        address from,\r\n        address to,\r\n        uint256 tokenId\r\n    ) internal virtual override(ERC721, ERC721Enumerable) {\r\n        super._beforeTokenTransfer(from, to, tokenId);\r\n    }\r\n\r\n}",
  "sourcePath": "F:\\Blockchain\\ByOrigin-Metis\\Backend\\contracts\\ByOrigin.sol",
  "compiler": {
    "name": "solc",
    "version": "0.8.10+commit.fc410830.Emscripten.clang"
  },
  "schemaVersion": "3.4.3",
  "updatedAt": "2022-05-21T12:37:40.344Z",
  "networkType": "ethereum",
  "devdoc": {
    "kind": "dev",
    "methods": {
      "owner()": {
        "details": "Returns the address of the current owner."
      },
      "renounceOwnership()": {
        "details": "Leaves the contract without owner. It will not be possible to call `onlyOwner` functions anymore. Can only be called by the current owner. NOTE: Renouncing ownership will leave the contract without an owner, thereby removing any functionality that is only available to the owner."
      },
      "transferOwnership(address)": {
        "details": "Transfers ownership of the contract to a new account (`newOwner`). Can only be called by the current owner."
      }
    },
    "version": 1
  },
  "userdoc": {
    "kind": "user",
    "methods": {},
    "version": 1
  }
}